{
  "contractName": "EventTickets",
  "abi": [
    {
      "inputs": [
        {
          "internalType": "string",
          "name": "_description",
          "type": "string"
        },
        {
          "internalType": "string",
          "name": "_website",
          "type": "string"
        },
        {
          "internalType": "uint256",
          "name": "_numberOfTicketsForSale",
          "type": "uint256"
        }
      ],
      "payable": false,
      "stateMutability": "nonpayable",
      "type": "constructor"
    },
    {
      "anonymous": false,
      "inputs": [
        {
          "indexed": false,
          "internalType": "address",
          "name": "purchaser",
          "type": "address"
        },
        {
          "indexed": false,
          "internalType": "uint256",
          "name": "numberOfTicketsPurchased",
          "type": "uint256"
        }
      ],
      "name": "LogBuyTickets",
      "type": "event"
    },
    {
      "anonymous": false,
      "inputs": [
        {
          "indexed": false,
          "internalType": "address",
          "name": "owner",
          "type": "address"
        },
        {
          "indexed": false,
          "internalType": "uint256",
          "name": "balanceTransferred",
          "type": "uint256"
        }
      ],
      "name": "LogEndSale",
      "type": "event"
    },
    {
      "anonymous": false,
      "inputs": [
        {
          "indexed": false,
          "internalType": "address",
          "name": "refundee",
          "type": "address"
        },
        {
          "indexed": false,
          "internalType": "uint256",
          "name": "numberOfTicketsRefunded",
          "type": "uint256"
        }
      ],
      "name": "LogGetRefund",
      "type": "event"
    },
    {
      "constant": true,
      "inputs": [],
      "name": "owner",
      "outputs": [
        {
          "internalType": "address payable",
          "name": "",
          "type": "address"
        }
      ],
      "payable": false,
      "stateMutability": "view",
      "type": "function"
    },
    {
      "constant": true,
      "inputs": [],
      "name": "readEvent",
      "outputs": [
        {
          "internalType": "string",
          "name": "description",
          "type": "string"
        },
        {
          "internalType": "string",
          "name": "website",
          "type": "string"
        },
        {
          "internalType": "uint256",
          "name": "totalTickets",
          "type": "uint256"
        },
        {
          "internalType": "uint256",
          "name": "sales",
          "type": "uint256"
        },
        {
          "internalType": "bool",
          "name": "isOpen",
          "type": "bool"
        }
      ],
      "payable": false,
      "stateMutability": "view",
      "type": "function"
    },
    {
      "constant": false,
      "inputs": [
        {
          "internalType": "uint256",
          "name": "numberOfTickets",
          "type": "uint256"
        }
      ],
      "name": "buyTickets",
      "outputs": [],
      "payable": true,
      "stateMutability": "payable",
      "type": "function"
    },
    {
      "constant": false,
      "inputs": [],
      "name": "getRefund",
      "outputs": [],
      "payable": true,
      "stateMutability": "payable",
      "type": "function"
    }
  ],
  "bytecode": "0x6080604052606460015534801561001557600080fd5b50604051610baa380380610baa8339818101604052606081101561003857600080fd5b810190808051604051939291908464010000000082111561005857600080fd5b8382019150602082018581111561006e57600080fd5b825186600182028301116401000000008211171561008b57600080fd5b8083526020830192505050908051906020019080838360005b838110156100bf5780820151818401526020810190506100a4565b50505050905090810190601f1680156100ec5780820380516001836020036101000a031916815260200191505b506040526020018051604051939291908464010000000082111561010f57600080fd5b8382019150602082018581111561012557600080fd5b825186600182028301116401000000008211171561014257600080fd5b8083526020830192505050908051906020019080838360005b8381101561017657808201518184015260208101905061015b565b50505050905090810190601f1680156101a35780820380516001836020036101000a031916815260200191505b5060405260200180519060200190929190505050336000806101000a81548173ffffffffffffffffffffffffffffffffffffffff021916908373ffffffffffffffffffffffffffffffffffffffff160217905550826002600001908051906020019061021092919061023c565b50816002600101908051906020019061022a92919061023c565b508060028001819055505050506102e1565b828054600181600116156101000203166002900490600052602060002090601f016020900481019282601f1061027d57805160ff19168380011785556102ab565b828001600101855582156102ab579182015b828111156102aa57825182559160200191906001019061028f565b5b5090506102b891906102bc565b5090565b6102de91905b808211156102da5760008160009055506001016102c2565b5090565b90565b6108ba806102f06000396000f3fe60806040526004361061003f5760003560e01c806305aea97c146100445780632f366637146101595780638da5cb5b14610187578063b2d5ae44146101de575b600080fd5b34801561005057600080fd5b506100596101e8565b60405180806020018060200186815260200185815260200184151515158152602001838103835288818151815260200191508051906020019080838360005b838110156100b3578082015181840152602081019050610098565b50505050905090810190601f1680156100e05780820380516001836020036101000a031916815260200191505b50838103825287818151815260200191508051906020019080838360005b838110156101195780820151818401526020810190506100fe565b50505050905090810190601f1680156101465780820380516001836020036101000a031916815260200191505b5097505050505050505060405180910390f35b6101856004803603602081101561016f57600080fd5b8101908080359060200190929190505050610361565b005b34801561019357600080fd5b5061019c6105e9565b604051808273ffffffffffffffffffffffffffffffffffffffff1673ffffffffffffffffffffffffffffffffffffffff16815260200191505060405180910390f35b6101e661060e565b005b6060806000806000600260000160026001016002800154600260030154600260050160009054906101000a900460ff16848054600181600116156101000203166002900480601f0160208091040260200160405190810160405280929190818152602001828054600181600116156101000203166002900480156102ad5780601f10610282576101008083540402835291602001916102ad565b820191906000526020600020905b81548152906001019060200180831161029057829003601f168201915b50505050509450838054600181600116156101000203166002900480601f0160208091040260200160405190810160405280929190818152602001828054600181600116156101000203166002900480156103495780601f1061031e57610100808354040283529160200191610349565b820191906000526020600020905b81548152906001019060200180831161032c57829003601f168201915b50505050509350945094509450945094509091929394565b60011515600260050160009054906101000a900460ff161515146103ed576040517f08c379a000000000000000000000000000000000000000000000000000000000815260040180806020018281038252600d8152602001807f53616c65206e6f74206f70656e0000000000000000000000000000000000000081525060200191505060405180910390fd5b600154810234101561044a576040517f08c379a000000000000000000000000000000000000000000000000000000000815260040180806020018281038252602e815260200180610858602e913960400191505060405180910390fd5b6002600301546002800154038111156104cb576040517f08c379a00000000000000000000000000000000000000000000000000000000081526004018080602001828103825260208152602001807f4e6f7420656e6f756768207469636b65747320746f206d656574206f7264657281525060200191505060405180910390fd5b80600260040160003373ffffffffffffffffffffffffffffffffffffffff1673ffffffffffffffffffffffffffffffffffffffff16815260200190815260200160002060008282540192505081905550806002600301600082825401925050819055503373ffffffffffffffffffffffffffffffffffffffff166108fc600154830234039081150290604051600060405180830381858888f1935050505015801561057a573d6000803e3d6000fd5b507f72240c1be87ee789414e12fc30844d39a55d1eaf3b8741489fe381ad2b6cdd473382604051808373ffffffffffffffffffffffffffffffffffffffff1673ffffffffffffffffffffffffffffffffffffffff1681526020018281526020019250505060405180910390a150565b6000809054906101000a900473ffffffffffffffffffffffffffffffffffffffff1681565b6000600260040160003373ffffffffffffffffffffffffffffffffffffffff1673ffffffffffffffffffffffffffffffffffffffff16815260200190815260200160002054116106c6576040517f08c379a00000000000000000000000000000000000000000000000000000000081526004018080602001828103825260098152602001807f6e6f74206f776e6572000000000000000000000000000000000000000000000081525060200191505060405180910390fd5b600260040160003373ffffffffffffffffffffffffffffffffffffffff1673ffffffffffffffffffffffffffffffffffffffff168152602001908152602001600020546002600301600082825403925050819055503373ffffffffffffffffffffffffffffffffffffffff166108fc600154600260040160003373ffffffffffffffffffffffffffffffffffffffff1673ffffffffffffffffffffffffffffffffffffffff16815260200190815260200160002054029081150290604051600060405180830381858888f193505050501580156107a7573d6000803e3d6000fd5b507f492e1d962a477f77890c7cfdb563d7ddc58fee6505741794fa5700ada3c1604133600260040160003373ffffffffffffffffffffffffffffffffffffffff1673ffffffffffffffffffffffffffffffffffffffff16815260200190815260200160002054604051808373ffffffffffffffffffffffffffffffffffffffff1673ffffffffffffffffffffffffffffffffffffffff1681526020018281526020019250505060405180910390a156fe4e6f7420656e6f756768206d6f6e657920737570706c69656420666f72207265717569726564207469636b657473a265627a7a7231582000115a1e62a82da68ad34d098c10f3bb0b5c5dcdd684851c7b731079e99f9b7b64736f6c634300050c0032",
  "source": "pragma solidity ^0.5.0;\r\n\r\n    /*\r\n        The EventTickets contract keeps track of the details and ticket sales of one event.\r\n     */\r\n\r\ncontract EventTickets {\r\n\r\n    /*\r\n        Done Create a public state variable called owner.\r\n        Done Use the appropriate keyword to create an associated getter function.\r\n        Done Use the appropriate keyword to allow ether transfers.\r\n     */\r\n    address payable public owner;\r\n\r\n    uint   TICKET_PRICE = 100 wei;\r\n\r\n    /*\r\n        DONE Create a struct called \"Event\".\r\n        DONE The struct has 6 fields: description, website (URL), totalTickets, sales, buyers, and isOpen.\r\n        DONE Choose the appropriate variable type for each field.\r\n        DONE The \"buyers\" field should keep track of addresses and how many tickets each buyer purchases.\r\n    */\r\n    struct Event {\r\n        string description;\r\n        string website;\r\n        uint totalTickets;\r\n        uint sales;\r\n        mapping (address => uint) buyers;\r\n        bool isOpen;\r\n    }\r\n    Event myEvent;\r\n\r\n    /*\r\n        Define 3 logging events.\r\n        DONE LogBuyTickets should provide information about the purchaser and the number of tickets purchased.\r\n        DONE LogGetRefund should provide information about the refund requester and the number of tickets refunded.\r\n        DONE LogEndSale should provide infromation about the contract owner and the balance transferred to them.\r\n    */\r\n    event LogBuyTickets(address purchaser, uint numberOfTicketsPurchased);\r\n    event LogGetRefund(address refundee, uint numberOfTicketsRefunded);\r\n    event LogEndSale(address owner, uint balanceTransferred);\r\n\r\n    /*\r\n        DONE Create a modifier that throws an error if the msg.sender is not the owner.\r\n    */\r\n    modifier verifyOwner() {\r\n        require (msg.sender == owner, \"message sender doesn't equal owner address\");\r\n        _;\r\n    }\r\n\r\n    /*\r\n        Define a constructor.\r\n        DONE The constructor takes 3 arguments, the description, the URL and the number of tickets for sale.\r\n        DONE Set the owner to the creator of the contract.\r\n        DONE Set the appropriate myEvent details.\r\n    */\r\n    constructor(string memory _description, string memory _website, uint _numberOfTicketsForSale) public {\r\n        owner = msg.sender;\r\n        myEvent.description = _description;\r\n        myEvent.website = _website;\r\n        myEvent.totalTickets = _numberOfTicketsForSale;\r\n    }\r\n    /*\r\n        DONE Define a function called readEvent() that returns the event details.\r\n        DONE This function does not modify state, add the appropriate keyword.\r\n        DONE The returned details should be called description, website, uint totalTickets, uint sales, bool isOpen in that order.\r\n    */\r\n    function readEvent()\r\n        public\r\n        view\r\n        returns(string memory description, string memory website, uint totalTickets, uint sales, bool isOpen)\r\n    {\r\n        return (myEvent.description, myEvent.website, myEvent.totalTickets, myEvent.sales, myEvent.isOpen);\r\n    }\r\n\r\n    /*\r\n        DONE Define a function called getBuyerTicketCount().\r\n        DONE This function takes 1 argument, an address and\r\n        DONE returns the number of tickets that address has purchased.\r\n    */\r\n    function getBuyerTicketCount (address _purchaserAddress)\r\n        private\r\n        view\r\n        returns (uint _numberOfTicketsPurchased)\r\n    {\r\n        return (myEvent.buyers[_purchaserAddress]);\r\n    }\r\n\r\n    /*\r\n        DONE Define a function called buyTickets().\r\n        This function allows someone to purchase tickets for the event.\r\n        DONE This function takes one argument, the number of tickets to be purchased.\r\n        DONE This function can accept Ether.\r\n        Be sure to check:\r\n        DONE    - That the event isOpen\r\n        DONE    - That the transaction value is sufficient for the number of tickets purchased\r\n        DONE    - That there are enough tickets in stock\r\n        Then:\r\n            - DONE add the appropriate number of tickets to the purchasers count\r\n            - DONE account for the purchase in the remaining number of available tickets\r\n            - DONE refund any surplus value sent with the transaction\r\n            - DONE emit the appropriate event\r\n    */\r\n    function buyTickets(uint numberOfTickets)\r\n    public\r\n    payable\r\n    {\r\n        require (myEvent.isOpen == true, 'Sale not open');\r\n        require (msg.value >= numberOfTickets*TICKET_PRICE, 'Not enough money supplied for required tickets');\r\n        require (numberOfTickets <= myEvent.totalTickets - myEvent.sales, 'Not enough tickets to meet order');\r\n\r\n        myEvent.buyers[msg.sender] += numberOfTickets;\r\n        myEvent.sales += numberOfTickets;\r\n        msg.sender.transfer(msg.value - numberOfTickets*TICKET_PRICE);\r\n        emit LogBuyTickets(msg.sender, numberOfTickets);\r\n    }\r\n    /*\r\n        DONE Define a function called getRefund().\r\n        This function allows someone to get a refund for tickets for the account they purchased from.\r\n        TODO:\r\n            - DONE Check that the requester has purchased tickets.\r\n            - DONE Make sure the refunded tickets go back into the pool of avialable tickets.\r\n            - DONE Transfer the appropriate amount to the refund requester.\r\n            - DONE Emit the appropriate event.\r\n    */\r\n\r\n    function getRefund()\r\n    public\r\n    payable\r\n    {\r\n        require (myEvent.buyers[msg.sender] > 0, 'not owner');\r\n        myEvent.sales -= myEvent.buyers[msg.sender];\r\n        msg.sender.transfer(myEvent.buyers[msg.sender]*TICKET_PRICE);\r\n        emit LogGetRefund(msg.sender, myEvent.buyers[msg.sender]);\r\n    }\r\n    /*\r\n        Define a function called endSale().\r\n        This function will close the ticket sales.\r\n        DONE This function can only be called by the contract owner.\r\n        TODO:\r\n            - DONE close the event\r\n            - DONE transfer the contract balance to the owner\r\n            - emit the appropriate event\r\n    */\r\n\r\n    function endSale()\r\n    internal\r\n    {\r\n        require (msg.sender == owner, 'not owner');\r\n        myEvent.isOpen = false;\r\n        owner.transfer(myEvent.sales*TICKET_PRICE);\r\n        emit LogEndSale(owner, myEvent.sales*TICKET_PRICE);\r\n    }\r\n}\r\n",
  "sourcePath": "C:/Users/cjd9s/OneDrive/Documents/GitHub/event-ticket-exercise-cjd9s/contracts/EventTickets.sol",
  "compiler": {
    "name": "solc",
    "version": "0.5.12+commit.7709ece9.Emscripten.clang"
  },
  "schemaVersion": "3.0.19",
  "updatedAt": "2019-12-18T13:51:23.593Z",
  "devdoc": {
    "methods": {}
  },
  "userdoc": {
    "methods": {}
  }
}