{
  "contractName": "EventTicketsV2",
  "abi": [
    {
      "anonymous": false,
      "inputs": [
        {
          "indexed": false,
          "internalType": "address",
          "name": "buyer",
          "type": "address"
        },
        {
          "indexed": false,
          "internalType": "uint256",
          "name": "eventId",
          "type": "uint256"
        },
        {
          "indexed": false,
          "internalType": "uint256",
          "name": "numTickets",
          "type": "uint256"
        }
      ],
      "name": "LogBuyTickets",
      "type": "event"
    },
    {
      "anonymous": false,
      "inputs": [
        {
          "indexed": false,
          "internalType": "address",
          "name": "owner",
          "type": "address"
        },
        {
          "indexed": false,
          "internalType": "uint256",
          "name": "balance",
          "type": "uint256"
        },
        {
          "indexed": false,
          "internalType": "uint256",
          "name": "eventId",
          "type": "uint256"
        }
      ],
      "name": "LogEndSale",
      "type": "event"
    },
    {
      "anonymous": false,
      "inputs": [
        {
          "indexed": false,
          "internalType": "string",
          "name": "desc",
          "type": "string"
        },
        {
          "indexed": false,
          "internalType": "string",
          "name": "url",
          "type": "string"
        },
        {
          "indexed": false,
          "internalType": "uint256",
          "name": "ticketsAvailable",
          "type": "uint256"
        },
        {
          "indexed": false,
          "internalType": "uint256",
          "name": "eventId",
          "type": "uint256"
        }
      ],
      "name": "LogEventAdded",
      "type": "event"
    },
    {
      "anonymous": false,
      "inputs": [
        {
          "indexed": false,
          "internalType": "address",
          "name": "accountRefunded",
          "type": "address"
        },
        {
          "indexed": false,
          "internalType": "uint256",
          "name": "eventId",
          "type": "uint256"
        },
        {
          "indexed": false,
          "internalType": "uint256",
          "name": "numTickets",
          "type": "uint256"
        }
      ],
      "name": "LogGetRefund",
      "type": "event"
    },
    {
      "constant": true,
      "inputs": [],
      "name": "idGenerator",
      "outputs": [
        {
          "internalType": "uint256",
          "name": "",
          "type": "uint256"
        }
      ],
      "payable": false,
      "stateMutability": "view",
      "type": "function"
    },
    {
      "constant": true,
      "inputs": [],
      "name": "owner",
      "outputs": [
        {
          "internalType": "address payable",
          "name": "",
          "type": "address"
        }
      ],
      "payable": false,
      "stateMutability": "view",
      "type": "function"
    },
    {
      "constant": false,
      "inputs": [
        {
          "internalType": "string",
          "name": "_eventDescription",
          "type": "string"
        },
        {
          "internalType": "string",
          "name": "_URL",
          "type": "string"
        },
        {
          "internalType": "uint256",
          "name": "_numberOfTickets",
          "type": "uint256"
        }
      ],
      "name": "addEvent",
      "outputs": [
        {
          "internalType": "uint256",
          "name": "",
          "type": "uint256"
        }
      ],
      "payable": false,
      "stateMutability": "nonpayable",
      "type": "function"
    },
    {
      "constant": true,
      "inputs": [
        {
          "internalType": "uint256",
          "name": "eventId",
          "type": "uint256"
        }
      ],
      "name": "readEvent",
      "outputs": [
        {
          "internalType": "string",
          "name": "description",
          "type": "string"
        },
        {
          "internalType": "string",
          "name": "website",
          "type": "string"
        },
        {
          "internalType": "uint256",
          "name": "totalTickets",
          "type": "uint256"
        },
        {
          "internalType": "uint256",
          "name": "sales",
          "type": "uint256"
        },
        {
          "internalType": "bool",
          "name": "isOpen",
          "type": "bool"
        }
      ],
      "payable": false,
      "stateMutability": "view",
      "type": "function"
    },
    {
      "constant": false,
      "inputs": [
        {
          "internalType": "uint256",
          "name": "eventId",
          "type": "uint256"
        },
        {
          "internalType": "uint256",
          "name": "numberOfTickets",
          "type": "uint256"
        }
      ],
      "name": "buyTickets",
      "outputs": [],
      "payable": true,
      "stateMutability": "payable",
      "type": "function"
    },
    {
      "constant": false,
      "inputs": [
        {
          "internalType": "uint256",
          "name": "eventId",
          "type": "uint256"
        }
      ],
      "name": "getRefund",
      "outputs": [],
      "payable": true,
      "stateMutability": "payable",
      "type": "function"
    },
    {
      "constant": false,
      "inputs": [
        {
          "internalType": "uint256",
          "name": "eventId",
          "type": "uint256"
        }
      ],
      "name": "endSale",
      "outputs": [],
      "payable": true,
      "stateMutability": "payable",
      "type": "function"
    }
  ],
  "bytecode": "0x6080604052336000806101000a81548173ffffffffffffffffffffffffffffffffffffffff021916908373ffffffffffffffffffffffffffffffffffffffff160217905550606460015534801561005557600080fd5b5061119e806100656000396000f3fe6080604052600436106100705760003560e01c80638da5cb5b1161004e5780638da5cb5b14610258578063d2f0be99146102af578063e1ba30a9146102dd578063e7bd92b91461041657610070565b806304d1a846146100755780634da19f20146100a35780638627df4614610220575b600080fd5b6100a16004803603602081101561008b57600080fd5b8101908080359060200190929190505050610441565b005b3480156100af57600080fd5b5061020a600480360360608110156100c657600080fd5b81019080803590602001906401000000008111156100e357600080fd5b8201836020820111156100f557600080fd5b8035906020019184600183028401116401000000008311171561011757600080fd5b91908080601f016020809104026020016040519081016040528093929190818152602001838380828437600081840152601f19601f8201169050808301925050505050505091929192908035906020019064010000000081111561017a57600080fd5b82018360208201111561018c57600080fd5b803590602001918460018302840111640100000000831117156101ae57600080fd5b91908080601f016020809104026020016040519081016040528093929190818152602001838380828437600081840152601f19601f82011690508083019250505050505050919291929080359060200190929190505050610665565b6040518082815260200191505060405180910390f35b6102566004803603604081101561023657600080fd5b810190808035906020019092919080359060200190929190505050610905565b005b34801561026457600080fd5b5061026d610c09565b604051808273ffffffffffffffffffffffffffffffffffffffff1673ffffffffffffffffffffffffffffffffffffffff16815260200191505060405180910390f35b6102db600480360360208110156102c557600080fd5b8101908080359060200190929190505050610c2e565b005b3480156102e957600080fd5b506103166004803603602081101561030057600080fd5b8101908080359060200190929190505050610ed5565b60405180806020018060200186815260200185815260200184151515158152602001838103835288818151815260200191508051906020019080838360005b83811015610370578082015181840152602081019050610355565b50505050905090810190601f16801561039d5780820380516001836020036101000a031916815260200191505b50838103825287818151815260200191508051906020019080838360005b838110156103d65780820151818401526020810190506103bb565b50505050905090810190601f1680156104035780820380516001836020036101000a031916815260200191505b5097505050505050505060405180910390f35b34801561042257600080fd5b5061042b6110be565b6040518082815260200191505060405180910390f35b6000809054906101000a900473ffffffffffffffffffffffffffffffffffffffff1673ffffffffffffffffffffffffffffffffffffffff163373ffffffffffffffffffffffffffffffffffffffff1614610503576040517f08c379a000000000000000000000000000000000000000000000000000000000815260040180806020018281038252601c8152602001807f6d6573736167652073656e646572206e6f7420746865206f776e65720000000081525060200191505060405180910390fd5b60006004600083815260200190815260200160002060050160006101000a81548160ff0219169083151502179055506000809054906101000a900473ffffffffffffffffffffffffffffffffffffffff1673ffffffffffffffffffffffffffffffffffffffff166108fc6001546004600085815260200190815260200160002060030154029081150290604051600060405180830381858888f193505050501580156105b3573d6000803e3d6000fd5b507f6497e6dff32a753fe6b3a2b3430e5f86d65c6e35cf360d52eb3494711d7d7a1c6000809054906101000a900473ffffffffffffffffffffffffffffffffffffffff1660015460046000858152602001908152602001600020600301540283604051808473ffffffffffffffffffffffffffffffffffffffff1673ffffffffffffffffffffffffffffffffffffffff168152602001838152602001828152602001935050505060405180910390a150565b60008060009054906101000a900473ffffffffffffffffffffffffffffffffffffffff1673ffffffffffffffffffffffffffffffffffffffff163373ffffffffffffffffffffffffffffffffffffffff1614610729576040517f08c379a000000000000000000000000000000000000000000000000000000000815260040180806020018281038252601c8152602001807f6d6573736167652073656e646572206e6f7420746865206f776e65720000000081525060200191505060405180910390fd5b600060025490508460046000838152602001908152602001600020600001908051906020019061075a9291906110c4565b50836004600083815260200190815260200160002060010190805190602001906107859291906110c4565b5082600460008381526020019081526020016000206002018190555060016004600083815260200190815260200160002060050160006101000a81548160ff0219169083151502179055507f7d1d82c13762b51876068c852c5d404d0fa38fb615c14eebefafb60bdb4bd1b285858584604051808060200180602001858152602001848152602001838103835287818151815260200191508051906020019080838360005b8381101561084557808201518184015260208101905061082a565b50505050905090810190601f1680156108725780820380516001836020036101000a031916815260200191505b50838103825286818151815260200191508051906020019080838360005b838110156108ab578082015181840152602081019050610890565b50505050905090810190601f1680156108d85780820380516001836020036101000a031916815260200191505b50965050505050505060405180910390a16001600260008282540192505081905550809150509392505050565b600115156004600084815260200190815260200160002060050160009054906101000a900460ff161515146109a2576040517f08c379a000000000000000000000000000000000000000000000000000000000815260040180806020018281038252600e8152602001807f73616c6573206e6f74206f70656e00000000000000000000000000000000000081525060200191505060405180910390fd5b6001548102341015610a1c576040517f08c379a000000000000000000000000000000000000000000000000000000000815260040180806020018281038252601f8152602001807f6e6f7420656e6f756768206d6f6e657920746f20627579207469636b6574730081525060200191505060405180910390fd5b6004600083815260200190815260200160002060030154600460008481526020019081526020016000206002015403811115610ac0576040517f08c379a000000000000000000000000000000000000000000000000000000000815260040180806020018281038252601c8152602001807f6e6f7420656e6f756768207469636b65747320617661696c61626c650000000081525060200191505060405180910390fd5b806004600084815260200190815260200160002060040160003373ffffffffffffffffffffffffffffffffffffffff1673ffffffffffffffffffffffffffffffffffffffff168152602001908152602001600020600082825401925050819055508060046000848152602001908152602001600020600301600082825401925050819055503373ffffffffffffffffffffffffffffffffffffffff166108fc600154830234039081150290604051600060405180830381858888f19350505050158015610b91573d6000803e3d6000fd5b507f15827fa78fedf80f93aa72ce61e705b1362cab60ae596b1bb327076fc3856c24338383604051808473ffffffffffffffffffffffffffffffffffffffff1673ffffffffffffffffffffffffffffffffffffffff168152602001838152602001828152602001935050505060405180910390a15050565b6000809054906101000a900473ffffffffffffffffffffffffffffffffffffffff1681565b60006004600083815260200190815260200160002060040160003373ffffffffffffffffffffffffffffffffffffffff1673ffffffffffffffffffffffffffffffffffffffff1681526020019081526020016000205411610cf7576040517f08c379a000000000000000000000000000000000000000000000000000000000815260040180806020018281038252601a8152602001807f596f7520646f6e2774206861766520616e79207469636b65747300000000000081525060200191505060405180910390fd5b6004600082815260200190815260200160002060040160003373ffffffffffffffffffffffffffffffffffffffff1673ffffffffffffffffffffffffffffffffffffffff1681526020019081526020016000205460046000838152602001908152602001600020600301600082825403925050819055503373ffffffffffffffffffffffffffffffffffffffff166108fc6001546004600085815260200190815260200160002060040160003373ffffffffffffffffffffffffffffffffffffffff1673ffffffffffffffffffffffffffffffffffffffff16815260200190815260200160002054029081150290604051600060405180830381858888f19350505050158015610e0b573d6000803e3d6000fd5b507f73ebb2050cb3ee6869929e7a26925e92e201f14902e155037f1f90af931b323333826004600085815260200190815260200160002060040160003373ffffffffffffffffffffffffffffffffffffffff1673ffffffffffffffffffffffffffffffffffffffff16815260200190815260200160002054604051808473ffffffffffffffffffffffffffffffffffffffff1673ffffffffffffffffffffffffffffffffffffffff168152602001838152602001828152602001935050505060405180910390a150565b60608060008060006060600460008881526020019081526020016000206000018054600181600116156101000203166002900480601f016020809104026020016040519081016040528092919081815260200182805460018160011615610100020316600290048015610f895780601f10610f5e57610100808354040283529160200191610f89565b820191906000526020600020905b815481529060010190602001808311610f6c57829003601f168201915b505050505090506060600460008981526020019081526020016000206001018054600181600116156101000203166002900480601f01602080910402602001604051908101604052809291908181526020018280546001816001161561010002031660029004801561103c5780601f106110115761010080835404028352916020019161103c565b820191906000526020600020905b81548152906001019060200180831161101f57829003601f168201915b505050505090506000600460008a81526020019081526020016000206002015490506000600460008b81526020019081526020016000206003015490506000600460008c815260200190815260200160002060050160009054906101000a900460ff169050848484848499509950995099509950505050505091939590929450565b60035481565b828054600181600116156101000203166002900490600052602060002090601f016020900481019282601f1061110557805160ff1916838001178555611133565b82800160010185558215611133579182015b82811115611132578251825591602001919060010190611117565b5b5090506111409190611144565b5090565b61116691905b8082111561116257600081600090555060010161114a565b5090565b9056fea265627a7a72315820e5a58a0490790e614de6373889674e3d21579d00c0250a2e2b15a1234a36e0d364736f6c634300050c0032",
  "source": "pragma solidity ^0.5.0;\r\n\r\n    /*\r\n        The EventTicketsV2 contract keeps track of the details and ticket sales of multiple events.\r\n     */\r\ncontract EventTicketsV2 {\r\n\r\n    /*\r\n        DONE Define an public owner variable. Set it to the creator of the contract when it is initialized.\r\n    */\r\n\r\n    address payable public owner = msg.sender;\r\n\r\n    uint   PRICE_TICKET = 100 wei;\r\n\r\n    /*\r\n        ???? Create a variable to keep track of the event ID numbers.\r\n    */\r\n\r\n    uint eventIdNumbers;\r\n    //new uint eventIdNumbers[];\r\n\t//uint[] memory a = new uint [](<variable length>);\r\n\r\n\r\n    uint public idGenerator;\r\n\r\n    /*\r\n        DONE Define an Event struct, similar to the V1 of this contract.\r\n        DONE The struct has 6 fields: description, website (URL), totalTickets, sales, buyers, and isOpen.\r\n        DONE Choose the appropriate variable type for each field.\r\n        DONE The \"buyers\" field should keep track of addresses and how many tickets each buyer purchases.\r\n    */\r\n    struct Event {\r\n        string description;\r\n        string website;\r\n        uint totalTickets;\r\n        uint sales;\r\n        mapping (address => uint) buyers;\r\n        bool isOpen;\r\n    }\r\n\r\n    /*\r\n        DONE Create a mapping to keep track of the events.\r\n        DONE The mapping key is an integer, the value is an Event struct.\r\n        DONE Call the mapping \"events\".\r\n    */\r\n    mapping (uint => Event) events;\r\n\r\n\r\n    event LogEventAdded(string desc, string url, uint ticketsAvailable, uint eventId);\r\n    event LogBuyTickets(address buyer, uint eventId, uint numTickets);\r\n    event LogGetRefund(address accountRefunded, uint eventId, uint numTickets);\r\n    event LogEndSale(address owner, uint balance, uint eventId);\r\n\r\n    /*\r\n        Create a modifier that throws an error if the msg.sender is not the owner.\r\n    */\r\n    modifier onlyOwner {\r\n        require (msg.sender == owner, 'message sender not the owner');\r\n        _;\r\n    }\r\n\r\n    /*\r\n        DONE Define a function called addEvent().\r\n        DONE This function takes 3 parameters, an event description, a URL, and a number of tickets.\r\n        DONE Only the contract owner should be able to call this function.\r\n        In the function:\r\n            - DONE Set the description, URL and ticket number in a new event.\r\n            - DONE set the event to open\r\n            - DONE set an event ID\r\n            - DONE increment the ID\r\n            - DONE emit the appropriate event\r\n            - DONE return the event's ID\r\n    */\r\n    function addEvent(string memory _eventDescription, string memory _URL, uint _numberOfTickets)\r\n    public\r\n    onlyOwner\r\n    returns (uint)\r\n\r\n    {\r\n        uint eventId = eventIdNumbers;\r\n        events[eventId].description = _eventDescription;\r\n        events[eventId].website = _URL;\r\n        events[eventId].totalTickets = _numberOfTickets;\r\n        events[eventId].isOpen = true;\r\n\r\n        emit LogEventAdded(_eventDescription, _URL, _numberOfTickets, eventId);\r\n        eventIdNumbers += 1;\r\n\r\n        return eventId;\r\n    }\r\n\r\n    /*\r\n        DONE Define a function called readEvent().\r\n        DONE This function takes one parameter, the event ID.\r\n        The function returns information about the event this order:\r\n            1. description\r\n            2. URL\r\n            3. tickets available\r\n            4. sales\r\n            5. isOpen\r\n    */\r\n    function readEvent(uint eventId)\r\n    public\r\n    view\r\n    returns(string memory description, string memory website, uint totalTickets, uint sales, bool isOpen)\r\n    {\r\n        string memory desc = events[eventId].description;\r\n        string memory web = events[eventId].website;\r\n        uint total = events[eventId].totalTickets;\r\n        uint sold = events[eventId].sales;\r\n        bool open = events[eventId].isOpen;\r\n\r\n        return (desc, web, total, sold, open);\r\n    }\r\n\r\n    /*\r\n        DONE Define a function called buyTickets().\r\n        This function allows users to buy tickets for a specific event.\r\n        DONE This function takes 2 parameters, an event ID and a number of tickets.\r\n        The function checks:\r\n            - DONE that the event sales are open\r\n            - DONE that the transaction value is sufficient to purchase the number of tickets\r\n            - DONE that there are enough tickets available to complete the purchase\r\n        The function:\r\n            - DONE increments the purchasers ticket count\r\n            - DONE increments the ticket sale count\r\n            - DONE refunds any surplus value sent\r\n            - DONE emits the appropriate event\r\n    */\r\n    function buyTickets(uint eventId, uint numberOfTickets)\r\n    public\r\n    payable\r\n    {\r\n        require (events[eventId].isOpen == true, 'sales not open');\r\n        require (msg.value >= numberOfTickets * PRICE_TICKET, 'not enough money to buy tickets');\r\n        require (numberOfTickets <= events[eventId].totalTickets - events[eventId].sales, 'not enough tickets available');\r\n\r\n        events[eventId].buyers[msg.sender] += numberOfTickets;\r\n        events[eventId].sales += numberOfTickets;\r\n        msg.sender.transfer(msg.value - numberOfTickets*PRICE_TICKET);\r\n\r\n        emit LogBuyTickets(msg.sender, eventId, numberOfTickets);\r\n    }\r\n    /*\r\n        DONE Define a function called getRefund().\r\n        This function allows users to request a refund for a specific event.\r\n        DONE This function takes one parameter, the event ID.\r\n        TODO:\r\n            - DONE check that a user has purchased tickets for the event\r\n            - DONE remove refunded tickets from the sold count\r\n            - DONE send appropriate value to the refund requester\r\n            - DONE emit the appropriate event\r\n    */\r\n    function getRefund(uint eventId)\r\n    public\r\n    payable\r\n    {\r\n        require (events[eventId].buyers[msg.sender] > 0, \"You don't have any tickets\");\r\n        events[eventId].sales -= events[eventId].buyers[msg.sender];\r\n        msg.sender.transfer(events[eventId].buyers[msg.sender]*PRICE_TICKET);\r\n        emit LogGetRefund(msg.sender, eventId, events[eventId].buyers[msg.sender]);\r\n\r\n    }\r\n    /*\r\n        DONE Define a function called getBuyerNumberTickets()\r\n        DONE This function takes one parameter, an event ID\r\n        DONE This function returns a uint, the number of tickets that the msg.sender has purchased.\r\n    */\r\n    function getBuyerNumberTickets(uint eventId)\r\n    internal\r\n    view\r\n    returns (uint)\r\n    {\r\n        return events[eventId].buyers[msg.sender];\r\n    }\r\n\r\n    /*\r\n        DONE Define a function called endSale()\r\n        DONE This function takes one parameter, the event ID\r\n        DONE Only the contract owner can call this function\r\n        TODO:\r\n            - DONE close event sales\r\n            - DONE transfer the balance from those event sales to the contract owner\r\n            - emit the appropriate event\r\n    */\r\n    function endSale(uint eventId)\r\n    public\r\n    payable\r\n    onlyOwner\r\n    {\r\n        events[eventId].isOpen = false;\r\n        owner.transfer(events[eventId].sales*PRICE_TICKET);\r\n        emit LogEndSale(owner, events[eventId].sales*PRICE_TICKET, eventId);\r\n    }\r\n}\r\n",
  "sourcePath": "C:/Users/cjd9s/OneDrive/Documents/GitHub/event-ticket-exercise-cjd9s/contracts/EventTicketsV2.sol",
  "compiler": {
    "name": "solc",
    "version": "0.5.12+commit.7709ece9.Emscripten.clang"
  },
  "schemaVersion": "3.0.19",
  "updatedAt": "2019-12-18T13:51:23.602Z",
  "devdoc": {
    "methods": {}
  },
  "userdoc": {
    "methods": {}
  }
}